{
  "_format": "hh-sol-artifact-1",
  "contractName": "Domains",
  "sourceName": "contracts/Domains.sol",
  "abi": [
    {
      "inputs": [
        {
          "internalType": "string",
          "name": "_tld",
          "type": "string"
        }
      ],
      "stateMutability": "payable",
      "type": "constructor"
    },
    {
      "inputs": [],
      "name": "AlreadyRegistered",
      "type": "error"
    },
    {
      "inputs": [
        {
          "internalType": "string",
          "name": "name",
          "type": "string"
        }
      ],
      "name": "InvalidName",
      "type": "error"
    },
    {
      "inputs": [],
      "name": "NotEnoughPaid",
      "type": "error"
    },
    {
      "inputs": [],
      "name": "Unauthorized",
      "type": "error"
    },
    {
      "anonymous": false,
      "inputs": [
        {
          "indexed": true,
          "internalType": "address",
          "name": "owner",
          "type": "address"
        },
        {
          "indexed": true,
          "internalType": "address",
          "name": "approved",
          "type": "address"
        },
        {
          "indexed": true,
          "internalType": "uint256",
          "name": "tokenId",
          "type": "uint256"
        }
      ],
      "name": "Approval",
      "type": "event"
    },
    {
      "anonymous": false,
      "inputs": [
        {
          "indexed": true,
          "internalType": "address",
          "name": "owner",
          "type": "address"
        },
        {
          "indexed": true,
          "internalType": "address",
          "name": "operator",
          "type": "address"
        },
        {
          "indexed": false,
          "internalType": "bool",
          "name": "approved",
          "type": "bool"
        }
      ],
      "name": "ApprovalForAll",
      "type": "event"
    },
    {
      "anonymous": false,
      "inputs": [
        {
          "indexed": true,
          "internalType": "address",
          "name": "previousOwner",
          "type": "address"
        },
        {
          "indexed": true,
          "internalType": "address",
          "name": "newOwner",
          "type": "address"
        }
      ],
      "name": "OwnershipTransferred",
      "type": "event"
    },
    {
      "anonymous": false,
      "inputs": [
        {
          "indexed": true,
          "internalType": "address",
          "name": "from",
          "type": "address"
        },
        {
          "indexed": true,
          "internalType": "address",
          "name": "to",
          "type": "address"
        },
        {
          "indexed": true,
          "internalType": "uint256",
          "name": "tokenId",
          "type": "uint256"
        }
      ],
      "name": "Transfer",
      "type": "event"
    },
    {
      "inputs": [
        {
          "internalType": "address",
          "name": "to",
          "type": "address"
        },
        {
          "internalType": "uint256",
          "name": "tokenId",
          "type": "uint256"
        }
      ],
      "name": "approve",
      "outputs": [],
      "stateMutability": "nonpayable",
      "type": "function"
    },
    {
      "inputs": [
        {
          "internalType": "string",
          "name": "",
          "type": "string"
        }
      ],
      "name": "avatars",
      "outputs": [
        {
          "internalType": "string",
          "name": "",
          "type": "string"
        }
      ],
      "stateMutability": "view",
      "type": "function"
    },
    {
      "inputs": [
        {
          "internalType": "address",
          "name": "owner",
          "type": "address"
        }
      ],
      "name": "balanceOf",
      "outputs": [
        {
          "internalType": "uint256",
          "name": "",
          "type": "uint256"
        }
      ],
      "stateMutability": "view",
      "type": "function"
    },
    {
      "inputs": [
        {
          "internalType": "string",
          "name": "",
          "type": "string"
        }
      ],
      "name": "domains",
      "outputs": [
        {
          "internalType": "address",
          "name": "",
          "type": "address"
        }
      ],
      "stateMutability": "view",
      "type": "function"
    },
    {
      "inputs": [
        {
          "internalType": "string",
          "name": "name",
          "type": "string"
        }
      ],
      "name": "getAddress",
      "outputs": [
        {
          "internalType": "address",
          "name": "",
          "type": "address"
        }
      ],
      "stateMutability": "view",
      "type": "function"
    },
    {
      "inputs": [],
      "name": "getAllNames",
      "outputs": [
        {
          "internalType": "string[]",
          "name": "",
          "type": "string[]"
        }
      ],
      "stateMutability": "view",
      "type": "function"
    },
    {
      "inputs": [
        {
          "internalType": "uint256",
          "name": "tokenId",
          "type": "uint256"
        }
      ],
      "name": "getApproved",
      "outputs": [
        {
          "internalType": "address",
          "name": "",
          "type": "address"
        }
      ],
      "stateMutability": "view",
      "type": "function"
    },
    {
      "inputs": [
        {
          "internalType": "string",
          "name": "name",
          "type": "string"
        }
      ],
      "name": "getAvatar",
      "outputs": [
        {
          "internalType": "string",
          "name": "",
          "type": "string"
        }
      ],
      "stateMutability": "view",
      "type": "function"
    },
    {
      "inputs": [
        {
          "internalType": "string",
          "name": "name",
          "type": "string"
        }
      ],
      "name": "getRecord",
      "outputs": [
        {
          "internalType": "string",
          "name": "",
          "type": "string"
        }
      ],
      "stateMutability": "view",
      "type": "function"
    },
    {
      "inputs": [
        {
          "internalType": "address",
          "name": "owner",
          "type": "address"
        },
        {
          "internalType": "address",
          "name": "operator",
          "type": "address"
        }
      ],
      "name": "isApprovedForAll",
      "outputs": [
        {
          "internalType": "bool",
          "name": "",
          "type": "bool"
        }
      ],
      "stateMutability": "view",
      "type": "function"
    },
    {
      "inputs": [
        {
          "internalType": "string",
          "name": "name",
          "type": "string"
        }
      ],
      "name": "isValid",
      "outputs": [
        {
          "internalType": "bool",
          "name": "",
          "type": "bool"
        }
      ],
      "stateMutability": "pure",
      "type": "function"
    },
    {
      "inputs": [],
      "name": "name",
      "outputs": [
        {
          "internalType": "string",
          "name": "",
          "type": "string"
        }
      ],
      "stateMutability": "view",
      "type": "function"
    },
    {
      "inputs": [
        {
          "internalType": "uint256",
          "name": "",
          "type": "uint256"
        }
      ],
      "name": "names",
      "outputs": [
        {
          "internalType": "string",
          "name": "",
          "type": "string"
        }
      ],
      "stateMutability": "view",
      "type": "function"
    },
    {
      "inputs": [],
      "name": "owner",
      "outputs": [
        {
          "internalType": "address",
          "name": "",
          "type": "address"
        }
      ],
      "stateMutability": "view",
      "type": "function"
    },
    {
      "inputs": [
        {
          "internalType": "uint256",
          "name": "tokenId",
          "type": "uint256"
        }
      ],
      "name": "ownerOf",
      "outputs": [
        {
          "internalType": "address",
          "name": "",
          "type": "address"
        }
      ],
      "stateMutability": "view",
      "type": "function"
    },
    {
      "inputs": [
        {
          "internalType": "string",
          "name": "name",
          "type": "string"
        }
      ],
      "name": "price",
      "outputs": [
        {
          "internalType": "uint256",
          "name": "",
          "type": "uint256"
        }
      ],
      "stateMutability": "pure",
      "type": "function"
    },
    {
      "inputs": [
        {
          "internalType": "string",
          "name": "",
          "type": "string"
        }
      ],
      "name": "records",
      "outputs": [
        {
          "internalType": "string",
          "name": "",
          "type": "string"
        }
      ],
      "stateMutability": "view",
      "type": "function"
    },
    {
      "inputs": [
        {
          "internalType": "string",
          "name": "name",
          "type": "string"
        }
      ],
      "name": "register",
      "outputs": [],
      "stateMutability": "payable",
      "type": "function"
    },
    {
      "inputs": [
        {
          "internalType": "string",
          "name": "name",
          "type": "string"
        },
        {
          "internalType": "string",
          "name": "record",
          "type": "string"
        },
        {
          "internalType": "string",
          "name": "avatar",
          "type": "string"
        }
      ],
      "name": "registerAndSetData",
      "outputs": [],
      "stateMutability": "payable",
      "type": "function"
    },
    {
      "inputs": [],
      "name": "renounceOwnership",
      "outputs": [],
      "stateMutability": "nonpayable",
      "type": "function"
    },
    {
      "inputs": [
        {
          "internalType": "address",
          "name": "from",
          "type": "address"
        },
        {
          "internalType": "address",
          "name": "to",
          "type": "address"
        },
        {
          "internalType": "uint256",
          "name": "tokenId",
          "type": "uint256"
        }
      ],
      "name": "safeTransferFrom",
      "outputs": [],
      "stateMutability": "nonpayable",
      "type": "function"
    },
    {
      "inputs": [
        {
          "internalType": "address",
          "name": "from",
          "type": "address"
        },
        {
          "internalType": "address",
          "name": "to",
          "type": "address"
        },
        {
          "internalType": "uint256",
          "name": "tokenId",
          "type": "uint256"
        },
        {
          "internalType": "bytes",
          "name": "_data",
          "type": "bytes"
        }
      ],
      "name": "safeTransferFrom",
      "outputs": [],
      "stateMutability": "nonpayable",
      "type": "function"
    },
    {
      "inputs": [
        {
          "internalType": "address",
          "name": "operator",
          "type": "address"
        },
        {
          "internalType": "bool",
          "name": "approved",
          "type": "bool"
        }
      ],
      "name": "setApprovalForAll",
      "outputs": [],
      "stateMutability": "nonpayable",
      "type": "function"
    },
    {
      "inputs": [
        {
          "internalType": "string",
          "name": "name",
          "type": "string"
        },
        {
          "internalType": "string",
          "name": "record",
          "type": "string"
        }
      ],
      "name": "setAvatar",
      "outputs": [],
      "stateMutability": "nonpayable",
      "type": "function"
    },
    {
      "inputs": [
        {
          "internalType": "string",
          "name": "name",
          "type": "string"
        },
        {
          "internalType": "string",
          "name": "record",
          "type": "string"
        }
      ],
      "name": "setRecord",
      "outputs": [],
      "stateMutability": "nonpayable",
      "type": "function"
    },
    {
      "inputs": [
        {
          "internalType": "bytes4",
          "name": "interfaceId",
          "type": "bytes4"
        }
      ],
      "name": "supportsInterface",
      "outputs": [
        {
          "internalType": "bool",
          "name": "",
          "type": "bool"
        }
      ],
      "stateMutability": "view",
      "type": "function"
    },
    {
      "inputs": [],
      "name": "symbol",
      "outputs": [
        {
          "internalType": "string",
          "name": "",
          "type": "string"
        }
      ],
      "stateMutability": "view",
      "type": "function"
    },
    {
      "inputs": [],
      "name": "tld",
      "outputs": [
        {
          "internalType": "string",
          "name": "",
          "type": "string"
        }
      ],
      "stateMutability": "view",
      "type": "function"
    },
    {
      "inputs": [
        {
          "internalType": "uint256",
          "name": "tokenId",
          "type": "uint256"
        }
      ],
      "name": "tokenURI",
      "outputs": [
        {
          "internalType": "string",
          "name": "",
          "type": "string"
        }
      ],
      "stateMutability": "view",
      "type": "function"
    },
    {
      "inputs": [
        {
          "internalType": "address",
          "name": "from",
          "type": "address"
        },
        {
          "internalType": "address",
          "name": "to",
          "type": "address"
        },
        {
          "internalType": "uint256",
          "name": "tokenId",
          "type": "uint256"
        }
      ],
      "name": "transferFrom",
      "outputs": [],
      "stateMutability": "nonpayable",
      "type": "function"
    },
    {
      "inputs": [
        {
          "internalType": "address",
          "name": "newOwner",
          "type": "address"
        }
      ],
      "name": "transferOwnership",
      "outputs": [],
      "stateMutability": "nonpayable",
      "type": "function"
    },
    {
      "inputs": [
        {
          "internalType": "string",
          "name": "name",
          "type": "string"
        },
        {
          "internalType": "string",
          "name": "record",
          "type": "string"
        },
        {
          "internalType": "string",
          "name": "avatar",
          "type": "string"
        }
      ],
      "name": "updateData",
      "outputs": [],
      "stateMutability": "payable",
      "type": "function"
    },
    {
      "inputs": [],
      "name": "withdraw",
      "outputs": [],
      "stateMutability": "nonpayable",
      "type": "function"
    }
  ],
  "bytecode": "0x6080604052604051806108e001604052806108bc815260200162005cb06108bc9139600e90805190602001906200003892919062000375565b506040518060400160405280600d81526020017f3c2f746578743e3c2f7376673e00000000000000000000000000000000000000815250600f90805190602001906200008692919062000375565b506040516200656c3803806200656c8339818101604052810190620000ac9190620005c2565b6040518060400160405280601281526020017f44616e6365204e616d65205365727669636500000000000000000000000000008152506040518060400160405280600381526020017f444e53000000000000000000000000000000000000000000000000000000000081525081600090805190602001906200013092919062000375565b5080600190805190602001906200014992919062000375565b5050506200016c62000160620001d860201b60201c565b620001e060201b60201c565b80600990805190602001906200018492919062000375565b50620001d16040518060400160405280601981526020017f2573206e616d652073657276696365206465706c6f7965642e0000000000000081525082620002a660201b620021a21760201c565b5062000710565b600033905090565b6000600760009054906101000a900473ffffffffffffffffffffffffffffffffffffffff16905081600760006101000a81548173ffffffffffffffffffffffffffffffffffffffff021916908373ffffffffffffffffffffffffffffffffffffffff1602179055508173ffffffffffffffffffffffffffffffffffffffff168173ffffffffffffffffffffffffffffffffffffffff167f8be0079c531659141344cd1fd0a4f28419497f9722a3daafe3b4186f6b6457e060405160405180910390a35050565b620003488282604051602401620002bf92919062000670565b6040516020818303038152906040527f4b5c4277000000000000000000000000000000000000000000000000000000007bffffffffffffffffffffffffffffffffffffffffffffffffffffffff19166020820180517bffffffffffffffffffffffffffffffffffffffffffffffffffffffff83818316178352505050506200034c60201b60201c565b5050565b60008151905060006a636f6e736f6c652e6c6f679050602083016000808483855afa5050505050565b8280546200038390620006da565b90600052602060002090601f016020900481019282620003a75760008555620003f3565b82601f10620003c257805160ff1916838001178555620003f3565b82800160010185558215620003f3579182015b82811115620003f2578251825591602001919060010190620003d5565b5b50905062000402919062000406565b5090565b5b808211156200042157600081600090555060010162000407565b5090565b6000604051905090565b600080fd5b600080fd5b600080fd5b600080fd5b6000601f19601f8301169050919050565b7f4e487b7100000000000000000000000000000000000000000000000000000000600052604160045260246000fd5b6200048e8262000443565b810181811067ffffffffffffffff82111715620004b057620004af62000454565b5b80604052505050565b6000620004c562000425565b9050620004d3828262000483565b919050565b600067ffffffffffffffff821115620004f657620004f562000454565b5b620005018262000443565b9050602081019050919050565b60005b838110156200052e57808201518184015260208101905062000511565b838111156200053e576000848401525b50505050565b60006200055b6200055584620004d8565b620004b9565b9050828152602081018484840111156200057a57620005796200043e565b5b620005878482856200050e565b509392505050565b600082601f830112620005a757620005a662000439565b5b8151620005b984826020860162000544565b91505092915050565b600060208284031215620005db57620005da6200042f565b5b600082015167ffffffffffffffff811115620005fc57620005fb62000434565b5b6200060a848285016200058f565b91505092915050565b600081519050919050565b600082825260208201905092915050565b60006200063c8262000613565b6200064881856200061e565b93506200065a8185602086016200050e565b620006658162000443565b840191505092915050565b600060408201905081810360008301526200068c81856200062f565b90508181036020830152620006a281846200062f565b90509392505050565b7f4e487b7100000000000000000000000000000000000000000000000000000000600052602260045260246000fd5b60006002820490506001821680620006f357607f821691505b602082108114156200070a5762000709620006ab565b5b50919050565b61559080620007206000396000f3fe6080604052600436106101ee5760003560e01c8063715018a61161010d578063c1880a98116100a0578063f1dfaefb1161006f578063f1dfaefb1461073d578063f2c298be1461077a578063f2fde38b14610796578063fb825e5f146107bf578063fe2c6198146107ea576101ee565b8063c1880a9814610671578063c87b56dd1461069a578063d3189e06146106d7578063e985e9c514610700576101ee565b806395d89b41116100dc57806395d89b41146105b7578063a22cb465146105e2578063b88d4fde1461060b578063bf40fac114610634576101ee565b8063715018a61461051c5780637d840ed5146105335780638945cc8e146105705780638da5cb5b1461058c576101ee565b80633ccfd60b11610185578063541e771d11610154578063541e771d1461044957806355995dba146104865780636352211e146104a257806370a08231146104df576101ee565b80633ccfd60b1461038f5780633d9647fe146103a657806342842e0e146103e35780634622ab031461040c576101ee565b806311dd8845116101c157806311dd8845146102c157806323b872dd146102fe57806326449235146103275780632d55143214610364576101ee565b806301ffc9a7146101f357806306fdde0314610230578063081812fc1461025b578063095ea7b314610298575b600080fd5b3480156101ff57600080fd5b5061021a600480360381019061021591906137e9565b610827565b6040516102279190613831565b60405180910390f35b34801561023c57600080fd5b50610245610909565b60405161025291906138e5565b60405180910390f35b34801561026757600080fd5b50610282600480360381019061027d919061393d565b61099b565b60405161028f91906139ab565b60405180910390f35b3480156102a457600080fd5b506102bf60048036038101906102ba91906139f2565b610a20565b005b3480156102cd57600080fd5b506102e860048036038101906102e39190613a97565b610b38565b6040516102f591906138e5565b60405180910390f35b34801561030a57600080fd5b5061032560048036038101906103209190613ae4565b610beb565b005b34801561033357600080fd5b5061034e60048036038101906103499190613c67565b610c4b565b60405161035b91906139ab565b60405180910390f35b34801561037057600080fd5b50610379610c94565b60405161038691906138e5565b60405180910390f35b34801561039b57600080fd5b506103a4610d22565b005b3480156103b257600080fd5b506103cd60048036038101906103c89190613c67565b610e53565b6040516103da91906138e5565b60405180910390f35b3480156103ef57600080fd5b5061040a60048036038101906104059190613ae4565b610f09565b005b34801561041857600080fd5b50610433600480360381019061042e919061393d565b610f29565b60405161044091906138e5565b60405180910390f35b34801561045557600080fd5b50610470600480360381019061046b9190613c67565b610fc9565b60405161047d91906138e5565b60405180910390f35b6104a0600480360381019061049b9190613cb0565b61107f565b005b3480156104ae57600080fd5b506104c960048036038101906104c4919061393d565b61109f565b6040516104d691906139ab565b60405180910390f35b3480156104eb57600080fd5b5061050660048036038101906105019190613d64565b611151565b6040516105139190613da0565b60405180910390f35b34801561052857600080fd5b50610531611209565b005b34801561053f57600080fd5b5061055a60048036038101906105559190613a97565b611291565b60405161056791906138e5565b60405180910390f35b61058a60048036038101906105859190613cb0565b611344565b005b34801561059857600080fd5b506105a1611364565b6040516105ae91906139ab565b60405180910390f35b3480156105c357600080fd5b506105cc61138e565b6040516105d991906138e5565b60405180910390f35b3480156105ee57600080fd5b5061060960048036038101906106049190613de7565b611420565b005b34801561061757600080fd5b50610632600480360381019061062d9190613ec8565b611436565b005b34801561064057600080fd5b5061065b60048036038101906106569190613a97565b611498565b60405161066891906139ab565b60405180910390f35b34801561067d57600080fd5b5061069860048036038101906106939190613f4b565b6114e3565b005b3480156106a657600080fd5b506106c160048036038101906106bc919061393d565b6115c2565b6040516106ce91906138e5565b60405180910390f35b3480156106e357600080fd5b506106fe60048036038101906106f99190613f4b565b611714565b005b34801561070c57600080fd5b5061072760048036038101906107229190613fcc565b6117f3565b6040516107349190613831565b60405180910390f35b34801561074957600080fd5b50610764600480360381019061075f9190613a97565b611887565b6040516107719190613831565b60405180910390f35b610794600480360381019061078f9190613a97565b61193b565b005b3480156107a257600080fd5b506107bd60048036038101906107b89190613d64565b611def565b005b3480156107cb57600080fd5b506107d4611ee7565b6040516107e19190614118565b60405180910390f35b3480156107f657600080fd5b50610811600480360381019061080c9190613a97565b6120c5565b60405161081e9190613da0565b60405180910390f35b60007f80ac58cd000000000000000000000000000000000000000000000000000000007bffffffffffffffffffffffffffffffffffffffffffffffffffffffff1916827bffffffffffffffffffffffffffffffffffffffffffffffffffffffff191614806108f257507f5b5e139f000000000000000000000000000000000000000000000000000000007bffffffffffffffffffffffffffffffffffffffffffffffffffffffff1916827bffffffffffffffffffffffffffffffffffffffffffffffffffffffff1916145b8061090257506109018261223e565b5b9050919050565b60606000805461091890614169565b80601f016020809104026020016040519081016040528092919081815260200182805461094490614169565b80156109915780601f1061096657610100808354040283529160200191610991565b820191906000526020600020905b81548152906001019060200180831161097457829003601f168201915b5050505050905090565b60006109a6826122a8565b6109e5576040517f08c379a00000000000000000000000000000000000000000000000000000000081526004016109dc9061420d565b60405180910390fd5b6004600083815260200190815260200160002060009054906101000a900473ffffffffffffffffffffffffffffffffffffffff169050919050565b6000610a2b8261109f565b90508073ffffffffffffffffffffffffffffffffffffffff168373ffffffffffffffffffffffffffffffffffffffff161415610a9c576040517f08c379a0000000000000000000000000000000000000000000000000000000008152600401610a939061429f565b60405180910390fd5b8073ffffffffffffffffffffffffffffffffffffffff16610abb612314565b73ffffffffffffffffffffffffffffffffffffffff161480610aea5750610ae981610ae4612314565b6117f3565b5b610b29576040517f08c379a0000000000000000000000000000000000000000000000000000000008152600401610b2090614331565b60405180910390fd5b610b33838361231c565b505050565b6060600b8383604051610b4c929190614381565b90815260200160405180910390208054610b6590614169565b80601f0160208091040260200160405190810160405280929190818152602001828054610b9190614169565b8015610bde5780601f10610bb357610100808354040283529160200191610bde565b820191906000526020600020905b815481529060010190602001808311610bc157829003601f168201915b5050505050905092915050565b610bfc610bf6612314565b826123d5565b610c3b576040517f08c379a0000000000000000000000000000000000000000000000000000000008152600401610c329061440c565b60405180910390fd5b610c468383836124b3565b505050565b600a818051602081018201805184825260208301602085012081835280955050505050506000915054906101000a900473ffffffffffffffffffffffffffffffffffffffff1681565b60098054610ca190614169565b80601f0160208091040260200160405190810160405280929190818152602001828054610ccd90614169565b8015610d1a5780601f10610cef57610100808354040283529160200191610d1a565b820191906000526020600020905b815481529060010190602001808311610cfd57829003601f168201915b505050505081565b610d2a612314565b73ffffffffffffffffffffffffffffffffffffffff16610d48611364565b73ffffffffffffffffffffffffffffffffffffffff1614610d9e576040517f08c379a0000000000000000000000000000000000000000000000000000000008152600401610d9590614478565b60405180910390fd5b600047905060003373ffffffffffffffffffffffffffffffffffffffff1682604051610dc9906144c9565b60006040518083038185875af1925050503d8060008114610e06576040519150601f19603f3d011682016040523d82523d6000602084013e610e0b565b606091505b5050905080610e4f576040517f08c379a0000000000000000000000000000000000000000000000000000000008152600401610e469061452a565b60405180910390fd5b5050565b600c818051602081018201805184825260208301602085012081835280955050505050506000915090508054610e8890614169565b80601f0160208091040260200160405190810160405280929190818152602001828054610eb490614169565b8015610f015780601f10610ed657610100808354040283529160200191610f01565b820191906000526020600020905b815481529060010190602001808311610ee457829003601f168201915b505050505081565b610f2483838360405180602001604052806000815250611436565b505050565b600d6020528060005260406000206000915090508054610f4890614169565b80601f0160208091040260200160405190810160405280929190818152602001828054610f7490614169565b8015610fc15780601f10610f9657610100808354040283529160200191610fc1565b820191906000526020600020905b815481529060010190602001808311610fa457829003601f168201915b505050505081565b600b818051602081018201805184825260208301602085012081835280955050505050506000915090508054610ffe90614169565b80601f016020809104026020016040519081016040528092919081815260200182805461102a90614169565b80156110775780601f1061104c57610100808354040283529160200191611077565b820191906000526020600020905b81548152906001019060200180831161105a57829003601f168201915b505050505081565b61108b868686866114e3565b61109786868484611714565b505050505050565b6000806002600084815260200190815260200160002060009054906101000a900473ffffffffffffffffffffffffffffffffffffffff169050600073ffffffffffffffffffffffffffffffffffffffff168173ffffffffffffffffffffffffffffffffffffffff161415611148576040517f08c379a000000000000000000000000000000000000000000000000000000000815260040161113f906145bc565b60405180910390fd5b80915050919050565b60008073ffffffffffffffffffffffffffffffffffffffff168273ffffffffffffffffffffffffffffffffffffffff1614156111c2576040517f08c379a00000000000000000000000000000000000000000000000000000000081526004016111b99061464e565b60405180910390fd5b600360008373ffffffffffffffffffffffffffffffffffffffff1673ffffffffffffffffffffffffffffffffffffffff168152602001908152602001600020549050919050565b611211612314565b73ffffffffffffffffffffffffffffffffffffffff1661122f611364565b73ffffffffffffffffffffffffffffffffffffffff1614611285576040517f08c379a000000000000000000000000000000000000000000000000000000000815260040161127c90614478565b60405180910390fd5b61128f600061271a565b565b6060600c83836040516112a5929190614381565b908152602001604051809103902080546112be90614169565b80601f01602080910402602001604051908101604052809291908181526020018280546112ea90614169565b80156113375780601f1061130c57610100808354040283529160200191611337565b820191906000526020600020905b81548152906001019060200180831161131a57829003601f168201915b5050505050905092915050565b61134e868661193b565b61135c86868686868661107f565b505050505050565b6000600760009054906101000a900473ffffffffffffffffffffffffffffffffffffffff16905090565b60606001805461139d90614169565b80601f01602080910402602001604051908101604052809291908181526020018280546113c990614169565b80156114165780601f106113eb57610100808354040283529160200191611416565b820191906000526020600020905b8154815290600101906020018083116113f957829003601f168201915b5050505050905090565b61143261142b612314565b83836127e0565b5050565b611447611441612314565b836123d5565b611486576040517f08c379a000000000000000000000000000000000000000000000000000000000815260040161147d9061440c565b60405180910390fd5b6114928484848461294d565b50505050565b6000600a83836040516114ac929190614381565b908152602001604051809103902060009054906101000a900473ffffffffffffffffffffffffffffffffffffffff16905092915050565b83833373ffffffffffffffffffffffffffffffffffffffff16600a838360405161150e929190614381565b908152602001604051809103902060009054906101000a900473ffffffffffffffffffffffffffffffffffffffff1673ffffffffffffffffffffffffffffffffffffffff161461158a576040517f82b4290000000000000000000000000000000000000000000000000000000000815260040160405180910390fd5b8383600b888860405161159e929190614381565b908152602001604051809103902091906115b9929190613654565b50505050505050565b60606115cd826122a8565b61160c576040517f08c379a0000000000000000000000000000000000000000000000000000000008152600401611603906146e0565b60405180910390fd5b600060066000848152602001908152602001600020805461162c90614169565b80601f016020809104026020016040519081016040528092919081815260200182805461165890614169565b80156116a55780601f1061167a576101008083540402835291602001916116a5565b820191906000526020600020905b81548152906001019060200180831161168857829003601f168201915b5050505050905060006116b66129a9565b90506000815114156116cc57819250505061170f565b6000825111156117015780826040516020016116e9929190614731565b6040516020818303038152906040529250505061170f565b61170a846129c0565b925050505b919050565b83833373ffffffffffffffffffffffffffffffffffffffff16600a838360405161173f929190614381565b908152602001604051809103902060009054906101000a900473ffffffffffffffffffffffffffffffffffffffff1673ffffffffffffffffffffffffffffffffffffffff16146117bb576040517f82b4290000000000000000000000000000000000000000000000000000000000815260040160405180910390fd5b8383600c88886040516117cf929190614381565b908152602001604051809103902091906117ea929190613654565b50505050505050565b6000600560008473ffffffffffffffffffffffffffffffffffffffff1673ffffffffffffffffffffffffffffffffffffffff16815260200190815260200160002060008373ffffffffffffffffffffffffffffffffffffffff1673ffffffffffffffffffffffffffffffffffffffff16815260200190815260200160002060009054906101000a900460ff16905092915050565b600060036118d884848080601f016020809104026020016040519081016040528093929190818152602001838380828437600081840152601f19601f82011690508083019250505050505050612a67565b101580156119335750601461193084848080601f016020809104026020016040519081016040528093929190818152602001838380828437600081840152601f19601f82011690508083019250505050505050612a67565b11155b905092915050565b600073ffffffffffffffffffffffffffffffffffffffff16600a8383604051611965929190614381565b908152602001604051809103902060009054906101000a900473ffffffffffffffffffffffffffffffffffffffff1673ffffffffffffffffffffffffffffffffffffffff16146119e1576040517f3a81d6fc00000000000000000000000000000000000000000000000000000000815260040160405180910390fd5b6119eb8282611887565b611a2e5781816040517f7f19f48d000000000000000000000000000000000000000000000000000000008152600401611a25929190614782565b60405180910390fd5b6000611a3a83836120c5565b905080341015611a76576040517fac97771400000000000000000000000000000000000000000000000000000000815260040160405180910390fd5b600083836009604051602001611a8e93929190614886565b60405160208183030381529060405290506000600e82600f604051602001611ab8939291906148b7565b60405160208183030381529060405290506000611ad56008612c1c565b90506000611b2687878080601f016020809104026020016040519081016040528093929190818152602001838380828437600081840152601f19601f82011690508083019250505050505050612a67565b90506000611b3382612c2a565b9050611c276040518060600160405280603281526020016155296032913989898080601f016020809104026020016040519081016040528093929190818152602001838380828437600081840152601f19601f8201169050808301925050505050505060098054611ba390614169565b80601f0160208091040260200160405190810160405280929190818152602001828054611bcf90614169565b8015611c1c5780601f10611bf157610100808354040283529160200191611c1c565b820191906000526020600020905b815481529060010190602001808311611bff57829003601f168201915b505050505086612d8b565b6000611c5d86611c3687612e2d565b84604051602001611c4993929190614a64565b604051602081830303815290604052612e2d565b9050600081604051602001611c729190614b0d565b6040516020818303038152906040529050611ca460405180606001604052806039815260200161547760399139612fc5565b611ce36040518060400160405280600e81526020017f46696e616c20746f6b656e555249000000000000000000000000000000000000815250826121a2565b611d046040518060600160405280603981526020016154b060399139612fc5565b611d0e338661305e565b611d18858261307c565b33600a8b8b604051611d2b929190614381565b908152602001604051809103902060006101000a81548173ffffffffffffffffffffffffffffffffffffffff021916908373ffffffffffffffffffffffffffffffffffffffff1602179055508989600d60008881526020019081526020016000209190611d99929190613654565b50611dd96040518060400160405280601b81526020017f2573206861732072656769737465726564206120646f6d61696e210000000000815250336130f0565b611de3600861318c565b50505050505050505050565b611df7612314565b73ffffffffffffffffffffffffffffffffffffffff16611e15611364565b73ffffffffffffffffffffffffffffffffffffffff1614611e6b576040517f08c379a0000000000000000000000000000000000000000000000000000000008152600401611e6290614478565b60405180910390fd5b600073ffffffffffffffffffffffffffffffffffffffff168173ffffffffffffffffffffffffffffffffffffffff161415611edb576040517f08c379a0000000000000000000000000000000000000000000000000000000008152600401611ed290614ba1565b60405180910390fd5b611ee48161271a565b50565b6060611f276040518060400160405280601f81526020017f47657474696e6720616c6c206e616d65732066726f6d20636f6e747261637400815250612fc5565b6000611f336008612c1c565b67ffffffffffffffff811115611f4c57611f4b613b3c565b5b604051908082528060200260200182016040528015611f7f57816020015b6060815260200190600190039081611f6a5790505b50905060005b611f8f6008612c1c565b8110156120bd57600d60008281526020019081526020016000208054611fb490614169565b80601f0160208091040260200160405190810160405280929190818152602001828054611fe090614169565b801561202d5780601f106120025761010080835404028352916020019161202d565b820191906000526020600020905b81548152906001019060200180831161201057829003601f168201915b505050505082828151811061204557612044614bc1565b5b60200260200101819052506120aa6040518060400160405280601781526020017f4e616d6520666f7220746f6b656e2025642069732025730000000000000000008152508284848151811061209d5761209c614bc1565b5b60200260200101516131a2565b80806120b590614c1f565b915050611f85565b508091505090565b60008061211584848080601f016020809104026020016040519081016040528093929190818152602001838380828437600081840152601f19601f82011690508083019250505050505050612a67565b90506000811161215e5783836040517f7f19f48d000000000000000000000000000000000000000000000000000000008152600401612155929190614782565b60405180910390fd5b60038114156121775766b1a2bc2ec5000091505061219c565b600481141561219057666a94d74f43000091505061219c565b662386f26fc100009150505b92915050565b61223a82826040516024016121b8929190614c68565b6040516020818303038152906040527f4b5c4277000000000000000000000000000000000000000000000000000000007bffffffffffffffffffffffffffffffffffffffffffffffffffffffff19166020820180517bffffffffffffffffffffffffffffffffffffffffffffffffffffffff8381831617835250505050613241565b5050565b60007f01ffc9a7000000000000000000000000000000000000000000000000000000007bffffffffffffffffffffffffffffffffffffffffffffffffffffffff1916827bffffffffffffffffffffffffffffffffffffffffffffffffffffffff1916149050919050565b60008073ffffffffffffffffffffffffffffffffffffffff166002600084815260200190815260200160002060009054906101000a900473ffffffffffffffffffffffffffffffffffffffff1673ffffffffffffffffffffffffffffffffffffffff1614159050919050565b600033905090565b816004600083815260200190815260200160002060006101000a81548173ffffffffffffffffffffffffffffffffffffffff021916908373ffffffffffffffffffffffffffffffffffffffff160217905550808273ffffffffffffffffffffffffffffffffffffffff1661238f8361109f565b73ffffffffffffffffffffffffffffffffffffffff167f8c5be1e5ebec7d5bd14f71427d1e84f3dd0314c0f7b2291e5b200ac8c7c3b92560405160405180910390a45050565b60006123e0826122a8565b61241f576040517f08c379a000000000000000000000000000000000000000000000000000000000815260040161241690614d11565b60405180910390fd5b600061242a8361109f565b90508073ffffffffffffffffffffffffffffffffffffffff168473ffffffffffffffffffffffffffffffffffffffff16148061249957508373ffffffffffffffffffffffffffffffffffffffff166124818461099b565b73ffffffffffffffffffffffffffffffffffffffff16145b806124aa57506124a981856117f3565b5b91505092915050565b8273ffffffffffffffffffffffffffffffffffffffff166124d38261109f565b73ffffffffffffffffffffffffffffffffffffffff1614612529576040517f08c379a000000000000000000000000000000000000000000000000000000000815260040161252090614da3565b60405180910390fd5b600073ffffffffffffffffffffffffffffffffffffffff168273ffffffffffffffffffffffffffffffffffffffff161415612599576040517f08c379a000000000000000000000000000000000000000000000000000000000815260040161259090614e35565b60405180910390fd5b6125a483838361326a565b6125af60008261231c565b6001600360008573ffffffffffffffffffffffffffffffffffffffff1673ffffffffffffffffffffffffffffffffffffffff16815260200190815260200160002060008282546125ff9190614e55565b925050819055506001600360008473ffffffffffffffffffffffffffffffffffffffff1673ffffffffffffffffffffffffffffffffffffffff16815260200190815260200160002060008282546126569190614e89565b92505081905550816002600083815260200190815260200160002060006101000a81548173ffffffffffffffffffffffffffffffffffffffff021916908373ffffffffffffffffffffffffffffffffffffffff160217905550808273ffffffffffffffffffffffffffffffffffffffff168473ffffffffffffffffffffffffffffffffffffffff167fddf252ad1be2c89b69c2b068fc378daa952ba7f163c4a11628f55a4df523b3ef60405160405180910390a461271583838361326f565b505050565b6000600760009054906101000a900473ffffffffffffffffffffffffffffffffffffffff16905081600760006101000a81548173ffffffffffffffffffffffffffffffffffffffff021916908373ffffffffffffffffffffffffffffffffffffffff1602179055508173ffffffffffffffffffffffffffffffffffffffff168173ffffffffffffffffffffffffffffffffffffffff167f8be0079c531659141344cd1fd0a4f28419497f9722a3daafe3b4186f6b6457e060405160405180910390a35050565b8173ffffffffffffffffffffffffffffffffffffffff168373ffffffffffffffffffffffffffffffffffffffff16141561284f576040517f08c379a000000000000000000000000000000000000000000000000000000000815260040161284690614f2b565b60405180910390fd5b80600560008573ffffffffffffffffffffffffffffffffffffffff1673ffffffffffffffffffffffffffffffffffffffff16815260200190815260200160002060008473ffffffffffffffffffffffffffffffffffffffff1673ffffffffffffffffffffffffffffffffffffffff16815260200190815260200160002060006101000a81548160ff0219169083151502179055508173ffffffffffffffffffffffffffffffffffffffff168373ffffffffffffffffffffffffffffffffffffffff167f17307eab39ab6107e8899845ad3d59bd9653f200f220920489ca2b5937696c31836040516129409190613831565b60405180910390a3505050565b6129588484846124b3565b61296484848484613274565b6129a3576040517f08c379a000000000000000000000000000000000000000000000000000000000815260040161299a90614fbd565b60405180910390fd5b50505050565b606060405180602001604052806000815250905090565b60606129cb826122a8565b612a0a576040517f08c379a0000000000000000000000000000000000000000000000000000000008152600401612a019061504f565b60405180910390fd5b6000612a146129a9565b90506000815111612a345760405180602001604052806000815250612a5f565b80612a3e84612c2a565b604051602001612a4f929190614731565b6040516020818303038152906040525b915050919050565b60008060008084519050600092505b80821015612c11576000858381518110612a9357612a92614bc1565b5b602001015160f81c60f81b9050608060f81b817effffffffffffffffffffffffffffffffffffffffffffffffffffffffffffff19161015612ae257600183612adb9190614e89565b9250612bfd565b60e060f81b817effffffffffffffffffffffffffffffffffffffffffffffffffffffffffffff19161015612b2457600283612b1d9190614e89565b9250612bfc565b60f060f81b817effffffffffffffffffffffffffffffffffffffffffffffffffffffffffffff19161015612b6657600383612b5f9190614e89565b9250612bfb565b60f8801b817effffffffffffffffffffffffffffffffffffffffffffffffffffffffffffff19161015612ba757600483612ba09190614e89565b9250612bfa565b60fc60f81b817effffffffffffffffffffffffffffffffffffffffffffffffffffffffffffff19161015612be957600583612be29190614e89565b9250612bf9565b600683612bf69190614e89565b92505b5b5b5b5b508280612c0990614c1f565b935050612a76565b829350505050919050565b600081600001549050919050565b60606000821415612c72576040518060400160405280600181526020017f30000000000000000000000000000000000000000000000000000000000000008152509050612d86565b600082905060005b60008214612ca4578080612c8d90614c1f565b915050600a82612c9d919061509e565b9150612c7a565b60008167ffffffffffffffff811115612cc057612cbf613b3c565b5b6040519080825280601f01601f191660200182016040528015612cf25781602001600182028036833780820191505090505b5090505b60008514612d7f57600182612d0b9190614e55565b9150600a85612d1a91906150cf565b6030612d269190614e89565b60f81b818381518110612d3c57612d3b614bc1565b5b60200101907effffffffffffffffffffffffffffffffffffffffffffffffffffffffffffff1916908160001a905350600a85612d78919061509e565b9450612cf6565b8093505050505b919050565b612e2784848484604051602401612da59493929190615100565b6040516020818303038152906040527f9fd009f5000000000000000000000000000000000000000000000000000000007bffffffffffffffffffffffffffffffffffffffffffffffffffffffff19166020820180517bffffffffffffffffffffffffffffffffffffffffffffffffffffffff8381831617835250505050613241565b50505050565b60606000825190506000811415612e565760405180602001604052806000815250915050612fc0565b60006003600283612e679190614e89565b612e71919061509e565b6004612e7d919061515a565b90506000602082612e8e9190614e89565b67ffffffffffffffff811115612ea757612ea6613b3c565b5b6040519080825280601f01601f191660200182016040528015612ed95781602001600182028036833780820191505090505b50905060006040518060600160405280604081526020016154e9604091399050600181016020830160005b86811015612f7d5760038101905062ffffff818a015116603f8160121c168401518060081b905060ff603f83600c1c1686015116810190508060081b905060ff603f8360061c1686015116810190508060081b905060ff603f831686015116810190508060e01b90508084526004840193505050612f04565b506003860660018114612f975760028114612fa757612fb2565b613d3d60f01b6002830352612fb2565b603d60f81b60018303525b508484525050819450505050505b919050565b61305b81604051602401612fd991906138e5565b6040516020818303038152906040527f41304fac000000000000000000000000000000000000000000000000000000007bffffffffffffffffffffffffffffffffffffffffffffffffffffffff19166020820180517bffffffffffffffffffffffffffffffffffffffffffffffffffffffff8381831617835250505050613241565b50565b6130788282604051806020016040528060008152506133fc565b5050565b613085826122a8565b6130c4576040517f08c379a00000000000000000000000000000000000000000000000000000000081526004016130bb90615226565b60405180910390fd5b806006600084815260200190815260200160002090805190602001906130eb9291906136da565b505050565b6131888282604051602401613106929190615246565b6040516020818303038152906040527f319af333000000000000000000000000000000000000000000000000000000007bffffffffffffffffffffffffffffffffffffffffffffffffffffffff19166020820180517bffffffffffffffffffffffffffffffffffffffffffffffffffffffff8381831617835250505050613241565b5050565b6001816000016000828254019250508190555050565b61323c8383836040516024016131ba93929190615276565b6040516020818303038152906040527fa3f5c739000000000000000000000000000000000000000000000000000000007bffffffffffffffffffffffffffffffffffffffffffffffffffffffff19166020820180517bffffffffffffffffffffffffffffffffffffffffffffffffffffffff8381831617835250505050613241565b505050565b60008151905060006a636f6e736f6c652e6c6f679050602083016000808483855afa5050505050565b505050565b505050565b60006132958473ffffffffffffffffffffffffffffffffffffffff16613457565b156133ef578373ffffffffffffffffffffffffffffffffffffffff1663150b7a026132be612314565b8786866040518563ffffffff1660e01b81526004016132e09493929190615310565b6020604051808303816000875af192505050801561331c57506040513d601f19601f820116820180604052508101906133199190615371565b60015b61339f573d806000811461334c576040519150601f19603f3d011682016040523d82523d6000602084013e613351565b606091505b50600081511415613397576040517f08c379a000000000000000000000000000000000000000000000000000000000815260040161338e90614fbd565b60405180910390fd5b805181602001fd5b63150b7a0260e01b7bffffffffffffffffffffffffffffffffffffffffffffffffffffffff1916817bffffffffffffffffffffffffffffffffffffffffffffffffffffffff1916149150506133f4565b600190505b949350505050565b613406838361347a565b6134136000848484613274565b613452576040517f08c379a000000000000000000000000000000000000000000000000000000000815260040161344990614fbd565b60405180910390fd5b505050565b6000808273ffffffffffffffffffffffffffffffffffffffff163b119050919050565b600073ffffffffffffffffffffffffffffffffffffffff168273ffffffffffffffffffffffffffffffffffffffff1614156134ea576040517f08c379a00000000000000000000000000000000000000000000000000000000081526004016134e1906153ea565b60405180910390fd5b6134f3816122a8565b15613533576040517f08c379a000000000000000000000000000000000000000000000000000000000815260040161352a90615456565b60405180910390fd5b61353f6000838361326a565b6001600360008473ffffffffffffffffffffffffffffffffffffffff1673ffffffffffffffffffffffffffffffffffffffff168152602001908152602001600020600082825461358f9190614e89565b92505081905550816002600083815260200190815260200160002060006101000a81548173ffffffffffffffffffffffffffffffffffffffff021916908373ffffffffffffffffffffffffffffffffffffffff160217905550808273ffffffffffffffffffffffffffffffffffffffff16600073ffffffffffffffffffffffffffffffffffffffff167fddf252ad1be2c89b69c2b068fc378daa952ba7f163c4a11628f55a4df523b3ef60405160405180910390a46136506000838361326f565b5050565b82805461366090614169565b90600052602060002090601f01602090048101928261368257600085556136c9565b82601f1061369b57803560ff19168380011785556136c9565b828001600101855582156136c9579182015b828111156136c85782358255916020019190600101906136ad565b5b5090506136d69190613760565b5090565b8280546136e690614169565b90600052602060002090601f016020900481019282613708576000855561374f565b82601f1061372157805160ff191683800117855561374f565b8280016001018555821561374f579182015b8281111561374e578251825591602001919060010190613733565b5b50905061375c9190613760565b5090565b5b80821115613779576000816000905550600101613761565b5090565b6000604051905090565b600080fd5b600080fd5b60007fffffffff0000000000000000000000000000000000000000000000000000000082169050919050565b6137c681613791565b81146137d157600080fd5b50565b6000813590506137e3816137bd565b92915050565b6000602082840312156137ff576137fe613787565b5b600061380d848285016137d4565b91505092915050565b60008115159050919050565b61382b81613816565b82525050565b60006020820190506138466000830184613822565b92915050565b600081519050919050565b600082825260208201905092915050565b60005b8381101561388657808201518184015260208101905061386b565b83811115613895576000848401525b50505050565b6000601f19601f8301169050919050565b60006138b78261384c565b6138c18185613857565b93506138d1818560208601613868565b6138da8161389b565b840191505092915050565b600060208201905081810360008301526138ff81846138ac565b905092915050565b6000819050919050565b61391a81613907565b811461392557600080fd5b50565b60008135905061393781613911565b92915050565b60006020828403121561395357613952613787565b5b600061396184828501613928565b91505092915050565b600073ffffffffffffffffffffffffffffffffffffffff82169050919050565b60006139958261396a565b9050919050565b6139a58161398a565b82525050565b60006020820190506139c0600083018461399c565b92915050565b6139cf8161398a565b81146139da57600080fd5b50565b6000813590506139ec816139c6565b92915050565b60008060408385031215613a0957613a08613787565b5b6000613a17858286016139dd565b9250506020613a2885828601613928565b9150509250929050565b600080fd5b600080fd5b600080fd5b60008083601f840112613a5757613a56613a32565b5b8235905067ffffffffffffffff811115613a7457613a73613a37565b5b602083019150836001820283011115613a9057613a8f613a3c565b5b9250929050565b60008060208385031215613aae57613aad613787565b5b600083013567ffffffffffffffff811115613acc57613acb61378c565b5b613ad885828601613a41565b92509250509250929050565b600080600060608486031215613afd57613afc613787565b5b6000613b0b868287016139dd565b9350506020613b1c868287016139dd565b9250506040613b2d86828701613928565b9150509250925092565b600080fd5b7f4e487b7100000000000000000000000000000000000000000000000000000000600052604160045260246000fd5b613b748261389b565b810181811067ffffffffffffffff82111715613b9357613b92613b3c565b5b80604052505050565b6000613ba661377d565b9050613bb28282613b6b565b919050565b600067ffffffffffffffff821115613bd257613bd1613b3c565b5b613bdb8261389b565b9050602081019050919050565b82818337600083830152505050565b6000613c0a613c0584613bb7565b613b9c565b905082815260208101848484011115613c2657613c25613b37565b5b613c31848285613be8565b509392505050565b600082601f830112613c4e57613c4d613a32565b5b8135613c5e848260208601613bf7565b91505092915050565b600060208284031215613c7d57613c7c613787565b5b600082013567ffffffffffffffff811115613c9b57613c9a61378c565b5b613ca784828501613c39565b91505092915050565b60008060008060008060608789031215613ccd57613ccc613787565b5b600087013567ffffffffffffffff811115613ceb57613cea61378c565b5b613cf789828a01613a41565b9650965050602087013567ffffffffffffffff811115613d1a57613d1961378c565b5b613d2689828a01613a41565b9450945050604087013567ffffffffffffffff811115613d4957613d4861378c565b5b613d5589828a01613a41565b92509250509295509295509295565b600060208284031215613d7a57613d79613787565b5b6000613d88848285016139dd565b91505092915050565b613d9a81613907565b82525050565b6000602082019050613db56000830184613d91565b92915050565b613dc481613816565b8114613dcf57600080fd5b50565b600081359050613de181613dbb565b92915050565b60008060408385031215613dfe57613dfd613787565b5b6000613e0c858286016139dd565b9250506020613e1d85828601613dd2565b9150509250929050565b600067ffffffffffffffff821115613e4257613e41613b3c565b5b613e4b8261389b565b9050602081019050919050565b6000613e6b613e6684613e27565b613b9c565b905082815260208101848484011115613e8757613e86613b37565b5b613e92848285613be8565b509392505050565b600082601f830112613eaf57613eae613a32565b5b8135613ebf848260208601613e58565b91505092915050565b60008060008060808587031215613ee257613ee1613787565b5b6000613ef0878288016139dd565b9450506020613f01878288016139dd565b9350506040613f1287828801613928565b925050606085013567ffffffffffffffff811115613f3357613f3261378c565b5b613f3f87828801613e9a565b91505092959194509250565b60008060008060408587031215613f6557613f64613787565b5b600085013567ffffffffffffffff811115613f8357613f8261378c565b5b613f8f87828801613a41565b9450945050602085013567ffffffffffffffff811115613fb257613fb161378c565b5b613fbe87828801613a41565b925092505092959194509250565b60008060408385031215613fe357613fe2613787565b5b6000613ff1858286016139dd565b9250506020614002858286016139dd565b9150509250929050565b600081519050919050565b600082825260208201905092915050565b6000819050602082019050919050565b600082825260208201905092915050565b60006140548261384c565b61405e8185614038565b935061406e818560208601613868565b6140778161389b565b840191505092915050565b600061408e8383614049565b905092915050565b6000602082019050919050565b60006140ae8261400c565b6140b88185614017565b9350836020820285016140ca85614028565b8060005b8581101561410657848403895281516140e78582614082565b94506140f283614096565b925060208a019950506001810190506140ce565b50829750879550505050505092915050565b6000602082019050818103600083015261413281846140a3565b905092915050565b7f4e487b7100000000000000000000000000000000000000000000000000000000600052602260045260246000fd5b6000600282049050600182168061418157607f821691505b602082108114156141955761419461413a565b5b50919050565b7f4552433732313a20617070726f76656420717565727920666f72206e6f6e657860008201527f697374656e7420746f6b656e0000000000000000000000000000000000000000602082015250565b60006141f7602c83613857565b91506142028261419b565b604082019050919050565b60006020820190508181036000830152614226816141ea565b9050919050565b7f4552433732313a20617070726f76616c20746f2063757272656e74206f776e6560008201527f7200000000000000000000000000000000000000000000000000000000000000602082015250565b6000614289602183613857565b91506142948261422d565b604082019050919050565b600060208201905081810360008301526142b88161427c565b9050919050565b7f4552433732313a20617070726f76652063616c6c6572206973206e6f74206f7760008201527f6e6572206e6f7220617070726f76656420666f7220616c6c0000000000000000602082015250565b600061431b603883613857565b9150614326826142bf565b604082019050919050565b6000602082019050818103600083015261434a8161430e565b9050919050565b600081905092915050565b60006143688385614351565b9350614375838584613be8565b82840190509392505050565b600061438e82848661435c565b91508190509392505050565b7f4552433732313a207472616e736665722063616c6c6572206973206e6f74206f60008201527f776e6572206e6f7220617070726f766564000000000000000000000000000000602082015250565b60006143f6603183613857565b91506144018261439a565b604082019050919050565b60006020820190508181036000830152614425816143e9565b9050919050565b7f4f776e61626c653a2063616c6c6572206973206e6f7420746865206f776e6572600082015250565b6000614462602083613857565b915061446d8261442c565b602082019050919050565b6000602082019050818103600083015261449181614455565b9050919050565b600081905092915050565b50565b60006144b3600083614498565b91506144be826144a3565b600082019050919050565b60006144d4826144a6565b9150819050919050565b7f4661696c656420746f207769746864726177206d617469630000000000000000600082015250565b6000614514601883613857565b915061451f826144de565b602082019050919050565b6000602082019050818103600083015261454381614507565b9050919050565b7f4552433732313a206f776e657220717565727920666f72206e6f6e657869737460008201527f656e7420746f6b656e0000000000000000000000000000000000000000000000602082015250565b60006145a6602983613857565b91506145b18261454a565b604082019050919050565b600060208201905081810360008301526145d581614599565b9050919050565b7f4552433732313a2062616c616e636520717565727920666f7220746865207a6560008201527f726f206164647265737300000000000000000000000000000000000000000000602082015250565b6000614638602a83613857565b9150614643826145dc565b604082019050919050565b600060208201905081810360008301526146678161462b565b9050919050565b7f45524337323155524953746f726167653a2055524920717565727920666f722060008201527f6e6f6e6578697374656e7420746f6b656e000000000000000000000000000000602082015250565b60006146ca603183613857565b91506146d58261466e565b604082019050919050565b600060208201905081810360008301526146f9816146bd565b9050919050565b600061470b8261384c565b6147158185614351565b9350614725818560208601613868565b80840191505092915050565b600061473d8285614700565b91506147498284614700565b91508190509392505050565b60006147618385613857565b935061476e838584613be8565b6147778361389b565b840190509392505050565b6000602082019050818103600083015261479d818486614755565b90509392505050565b7f2e00000000000000000000000000000000000000000000000000000000000000600082015250565b60006147dc600183614351565b91506147e7826147a6565b600182019050919050565b60008190508160005260206000209050919050565b6000815461481481614169565b61481e8186614351565b94506001821660008114614839576001811461484a5761487d565b60ff1983168652818601935061487d565b614853856147f2565b60005b8381101561487557815481890152600182019150602081019050614856565b838801955050505b50505092915050565b600061489382858761435c565b915061489e826147cf565b91506148aa8284614807565b9150819050949350505050565b60006148c38286614807565b91506148cf8285614700565b91506148db8284614807565b9150819050949350505050565b7f7b226e616d65223a202200000000000000000000000000000000000000000000600082015250565b600061491e600a83614351565b9150614929826148e8565b600a82019050919050565b7f222c20226465736372697074696f6e223a20224120646f6d61696e206f6e207460008201527f68652044616e6365206e616d652073657276696365222c2022696d616765223a60208201527f2022646174613a696d6167652f7376672b786d6c3b6261736536342c00000000604082015250565b60006149b6605c83614351565b91506149c182614934565b605c82019050919050565b7f222c226c656e677468223a220000000000000000000000000000000000000000600082015250565b6000614a02600c83614351565b9150614a0d826149cc565b600c82019050919050565b7f227d000000000000000000000000000000000000000000000000000000000000600082015250565b6000614a4e600283614351565b9150614a5982614a18565b600282019050919050565b6000614a6f82614911565b9150614a7b8286614700565b9150614a86826149a9565b9150614a928285614700565b9150614a9d826149f5565b9150614aa98284614700565b9150614ab482614a41565b9150819050949350505050565b7f646174613a6170706c69636174696f6e2f6a736f6e3b6261736536342c000000600082015250565b6000614af7601d83614351565b9150614b0282614ac1565b601d82019050919050565b6000614b1882614aea565b9150614b248284614700565b915081905092915050565b7f4f776e61626c653a206e6577206f776e657220697320746865207a65726f206160008201527f6464726573730000000000000000000000000000000000000000000000000000602082015250565b6000614b8b602683613857565b9150614b9682614b2f565b604082019050919050565b60006020820190508181036000830152614bba81614b7e565b9050919050565b7f4e487b7100000000000000000000000000000000000000000000000000000000600052603260045260246000fd5b7f4e487b7100000000000000000000000000000000000000000000000000000000600052601160045260246000fd5b6000614c2a82613907565b91507fffffffffffffffffffffffffffffffffffffffffffffffffffffffffffffffff821415614c5d57614c5c614bf0565b5b600182019050919050565b60006040820190508181036000830152614c8281856138ac565b90508181036020830152614c9681846138ac565b90509392505050565b7f4552433732313a206f70657261746f7220717565727920666f72206e6f6e657860008201527f697374656e7420746f6b656e0000000000000000000000000000000000000000602082015250565b6000614cfb602c83613857565b9150614d0682614c9f565b604082019050919050565b60006020820190508181036000830152614d2a81614cee565b9050919050565b7f4552433732313a207472616e736665722066726f6d20696e636f72726563742060008201527f6f776e6572000000000000000000000000000000000000000000000000000000602082015250565b6000614d8d602583613857565b9150614d9882614d31565b604082019050919050565b60006020820190508181036000830152614dbc81614d80565b9050919050565b7f4552433732313a207472616e7366657220746f20746865207a65726f2061646460008201527f7265737300000000000000000000000000000000000000000000000000000000602082015250565b6000614e1f602483613857565b9150614e2a82614dc3565b604082019050919050565b60006020820190508181036000830152614e4e81614e12565b9050919050565b6000614e6082613907565b9150614e6b83613907565b925082821015614e7e57614e7d614bf0565b5b828203905092915050565b6000614e9482613907565b9150614e9f83613907565b9250827fffffffffffffffffffffffffffffffffffffffffffffffffffffffffffffffff03821115614ed457614ed3614bf0565b5b828201905092915050565b7f4552433732313a20617070726f766520746f2063616c6c657200000000000000600082015250565b6000614f15601983613857565b9150614f2082614edf565b602082019050919050565b60006020820190508181036000830152614f4481614f08565b9050919050565b7f4552433732313a207472616e7366657220746f206e6f6e20455243373231526560008201527f63656976657220696d706c656d656e7465720000000000000000000000000000602082015250565b6000614fa7603283613857565b9150614fb282614f4b565b604082019050919050565b60006020820190508181036000830152614fd681614f9a565b9050919050565b7f4552433732314d657461646174613a2055524920717565727920666f72206e6f60008201527f6e6578697374656e7420746f6b656e0000000000000000000000000000000000602082015250565b6000615039602f83613857565b915061504482614fdd565b604082019050919050565b600060208201905081810360008301526150688161502c565b9050919050565b7f4e487b7100000000000000000000000000000000000000000000000000000000600052601260045260246000fd5b60006150a982613907565b91506150b483613907565b9250826150c4576150c361506f565b5b828204905092915050565b60006150da82613907565b91506150e583613907565b9250826150f5576150f461506f565b5b828206905092915050565b6000608082019050818103600083015261511a81876138ac565b9050818103602083015261512e81866138ac565b9050818103604083015261514281856138ac565b90506151516060830184613d91565b95945050505050565b600061516582613907565b915061517083613907565b9250817fffffffffffffffffffffffffffffffffffffffffffffffffffffffffffffffff04831182151516156151a9576151a8614bf0565b5b828202905092915050565b7f45524337323155524953746f726167653a2055524920736574206f66206e6f6e60008201527f6578697374656e7420746f6b656e000000000000000000000000000000000000602082015250565b6000615210602e83613857565b915061521b826151b4565b604082019050919050565b6000602082019050818103600083015261523f81615203565b9050919050565b6000604082019050818103600083015261526081856138ac565b905061526f602083018461399c565b9392505050565b6000606082019050818103600083015261529081866138ac565b905061529f6020830185613d91565b81810360408301526152b181846138ac565b9050949350505050565b600081519050919050565b600082825260208201905092915050565b60006152e2826152bb565b6152ec81856152c6565b93506152fc818560208601613868565b6153058161389b565b840191505092915050565b6000608082019050615325600083018761399c565b615332602083018661399c565b61533f6040830185613d91565b818103606083015261535181846152d7565b905095945050505050565b60008151905061536b816137bd565b92915050565b60006020828403121561538757615386613787565b5b60006153958482850161535c565b91505092915050565b7f4552433732313a206d696e7420746f20746865207a65726f2061646472657373600082015250565b60006153d4602083613857565b91506153df8261539e565b602082019050919050565b60006020820190508181036000830152615403816153c7565b9050919050565b7f4552433732313a20746f6b656e20616c7265616479206d696e74656400000000600082015250565b6000615440601c83613857565b915061544b8261540a565b602082019050919050565b6000602082019050818103600083015261546f81615433565b905091905056fe0a2d2d2d2d2d2d2d2d2d2d2d2d2d2d2d2d2d2d2d2d2d2d2d2d2d2d2d2d2d2d2d2d2d2d2d2d2d2d2d2d2d2d2d2d2d2d2d2d2d2d2d2d2d2d2d2d2d2d2d2d2d2d2d2d2d2d2d2d2d2d2d2d2d2d2d2d2d2d2d2d2d2d2d2d2d2d2d2d2d2d2d2d2d2d2d2d2d2d2d2d2d2d2d2d2d2d2d2d2d2d2d2d0a4142434445464748494a4b4c4d4e4f505152535455565758595a6162636465666768696a6b6c6d6e6f707172737475767778797a303132333435363738392b2f5265676973746572696e672025732e2573206f6e2074686520636f6e7472616374207769746820746f6b656e204944202564a26469706673582212205516f8c2aad5280a5bf8c83cd1f274fb8efe60d85c0bae900e5f43dd8315774564736f6c634300080a00333c73766720786d6c6e733d22687474703a2f2f7777772e77332e6f72672f323030302f737667222077696474683d2232373022206865696768743d22323730222066696c6c3d226e6f6e65223e3c706174682066696c6c3d2275726c282361292220643d224d302030683237307632373048307a222f3e3c646566733e3c66696c7465722069643d22622220636f6c6f722d696e746572706f6c6174696f6e2d66696c746572733d2273524742222066696c746572556e6974733d227573657253706163654f6e55736522206865696768743d22323730222077696474683d22323730223e3c666544726f70536861646f772064783d2230222064793d22312220737464446576696174696f6e3d22322220666c6f6f642d6f7061636974793d222e323235222077696474683d223230302522206865696768743d2232303025222f3e3c2f66696c7465723e3c2f646566733e3c7061746820643d224d37322e3836332034322e39343961342e33383220342e3338322030203020302d342e33393420306c2d31302e30383120362e3033322d362e383520332e3933342d31302e30383120362e30333261342e33383220342e3338322030203020312d342e33393420306c2d382e3031332d342e37323161342e353220342e35322030203020312d312e3538392d312e36313620342e353420342e35342030203020312d2e3630382d322e313837762d392e333161342e323720342e3237203020302031202e3537322d322e32303820342e323520342e323520302030203120312e3632352d312e3539356c372e3838342d342e353961342e33383220342e33383220302030203120342e33393420306c372e38383420342e353961342e353220342e353220302030203120312e35383920312e36313620342e353420342e3534203020302031202e36303820322e31383776362e3033326c362e38352d342e303635762d362e30333261342e323720342e32372030203020302d2e3537322d322e32303820342e323520342e32352030203020302d312e3632352d312e3539354c34312e3435362032342e353961342e33383220342e3338322030203020302d342e33393420306c2d31342e38363420382e36353561342e323520342e32352030203020302d312e36323520312e35393520342e32373320342e3237332030203020302d2e35373220322e3230387631372e34343161342e323720342e3237203020302030202e35373220322e32303820342e323520342e323520302030203020312e36323520312e3539356c31342e38363420382e36353561342e33383220342e33383220302030203020342e33393420306c31302e3038312d352e39303120362e38352d342e3036352031302e3038312d352e39303161342e33383220342e33383220302030203120342e33393420306c372e38383420342e353961342e353220342e353220302030203120312e35383920312e36313620342e353420342e3534203020302031202e36303820322e31383776392e33313161342e323720342e32372030203020312d2e35373220322e32303820342e323520342e32352030203020312d312e36323520312e3539356c2d372e38383420342e37323161342e33383220342e3338322030203020312d342e33393420306c2d372e3838342d342e353961342e353220342e35322030203020312d312e3538392d312e36313620342e353320342e35332030203020312d2e3630382d322e313837762d362e3033326c2d362e383520342e30363576362e30333261342e323720342e3237203020302030202e35373220322e32303820342e323520342e323520302030203020312e36323520312e3539356c31342e38363420382e36353561342e33383220342e33383220302030203020342e33393420306c31342e3836342d382e36353561342e35343520342e35343520302030203020322e3139382d332e3830335635352e35333861342e323720342e32372030203020302d2e3537322d322e32303820342e323520342e32352030203020302d312e3632352d312e3539356c2d31342e3939332d382e3738367a223e3c616e696d617465206174747269627574654e616d653d2266696c6c2220617474726962757465547970653d22584d4c222076616c7565733d22234535373534373b233832343745353b2345353735343722206475723d2234732220726570656174436f756e743d22696e646566696e697465222f3e3c2f706174683e3c646566733e3c6c696e6561724772616469656e742069643d2261222078313d2230222079313d2230222078323d22323730222079323d2232373022206772616469656e74556e6974733d227573657253706163654f6e557365223e3c73746f702073746f702d636f6c6f723d2223653537353437223e3c616e696d617465206174747269627574654e616d653d2273746f702d636f6c6f72222076616c7565733d22233832343745353b20236535373534373b2338323437453522206475723d2234732220726570656174436f756e743d22696e646566696e697465222f3e3c2f73746f703e3c73746f70206f66667365743d2231222073746f702d636f6c6f723d2223383234374535222073746f702d6f7061636974793d222e3939223e3c616e696d617465206174747269627574654e616d653d2273746f702d636f6c6f72222076616c7565733d22236535373534373b20233832343745353b2365353735343722206475723d2234732220726570656174436f756e743d22696e646566696e697465222f3e3c2f73746f703e3c2f6c696e6561724772616469656e743e3c2f646566733e3c7465787420783d2233322e352220793d223233312220666f6e742d73697a653d223138222066696c6c3d2223666666222066696c7465723d2275726c282362292220666f6e742d66616d696c793d22506c7573204a616b617274612053616e732c44656a6156752053616e732c4e6f746f20436f6c6f7220456d6f6a692c4170706c6520436f6c6f7220456d6f6a692c73616e732d73657269662220666f6e742d7765696768743d22626f6c64223e",
  "linkReferences": {},
  "deployedLinkReferences": {}
}